:020000040800F2
:100000003806002045010008550D0008570D00086E
:100010005B0D00085F0D0008630D00080000000084
:10002000000000000000000000000000670D000854
:10003000690D0008000000006B0D00086D0D000840
:100040005F0100085F0100085F0100085F01000810
:100050005F0100085F0100085F0100085F01000800
:100060005F0100085F0100085F0100085F010008F0
:100070005F0100085F0100085F0100085F010008E0
:100080005F0100085F0100085F0100085F010008D0
:100090005F0100085F0100085F0100085F010008C0
:1000A0005F0100085F0100085F0100085F010008B0
:1000B0005F0100085F0100085F0100085F010008A0
:1000C0005F0100085F0100085F0100085F01000890
:1000D0005F0100085F0100085F0100085F01000880
:1000E0005F0100085F0100085F0100085F01000870
:1000F0005F0100085F0100085F0100085F01000860
:100100005F0100085F0100085F0100085F0100084F
:100110005F0100085F0100085F0100085F0100083F
:100120005F0100085F0100085F0100085F0100082F
:10013000DFF80CD001F03CF8004800474D0D0008F6
:10014000380600200648804706480047FEE7FEE7DD
:10015000FEE7FEE7FEE7FEE7FEE7FEE7FEE7FEE777
:1001600045020008310100080CB500200190009004
:100170006B48006840F480306949086000BF6848F7
:10018000006800F4003000900198401C0190009835
:1001900018B90198B0F5A06FF1D16148006810F46A
:1001A000003F02D00120009001E000200090009864
:1001B000012842D15B48006840F0100059490860AE
:1001C0000846006820F0030008600846006840F018
:1001D000020008605248406851494860084640683B
:1001E00048600846406840F48060486008464068BF
:1001F00020F47C1048600846406840F4E8104860ED
:100200000846006840F08070086000BF44480068FD
:1002100010F0007FFAD04248406820F003004049C7
:1002200048600846406840F00200486000BF3C4813
:10023000406800F00C000828F9D10CBD10B5FFF79C
:1002400093FF10BD10B53648006840F001003449F6
:10025000086008464068344908403149486008460B
:100260000068324908402E4908600846006820F4BA
:10027000802008600846406820F4FE0048604FF483
:100280001F008860FFF7DAFF4FF000602849086020
:1002900010BD10B5002100200022214B5B6803F047
:1002A0000C0121B1042906D0082928D107E0214BEF
:1002B000214C236027E01F4B1F4C236023E0184B89
:1002C0005B6803F47010164B5B6803F48032022302
:1002D00003EB904022B9194B4343174C23600DE0C8
:1002E0000F4B5B6813F4003F04D0144B4343124C94
:1002F000236003E00F4B43430F4C236003E00D4B9F
:100300000D4C236000BF00BF054B5B68C3F30313B4
:100310000B4CE15C084B1B68CB40074C236010BDC5
:1003200000100240002002400000FFF8FFFFF6FE30
:1003300008ED00E000127A000000002000093D00F6
:100340000400002010B50446CA48844208D10121A7
:10035000042000F027FB0021042000F023FB46E0EE
:10036000C548844208D10121082000F01BFB002170
:10037000082000F017FB3AE0C048844208D1012170
:10038000102000F00FFB0021102000F00BFB2EE0EE
:10039000BB48844208D10121202000F003FB00214A
:1003A000202000F0FFFA22E0B648844208D1012163
:1003B000402000F0F7FA0021402000F0F3FA16E0A8
:1003C000B148844208D10121802000F0EBFA0021DD
:1003D000802000F0E7FA0AE0AC48844207D101210E
:1003E000801500F0DFFA0021A01500F0DBFA10BD47
:1003F00010B50121084600F0D5FA0021012000F0D7
:10040000D1FA10BD2DE9F04102460025002600205A
:1004100000230024002791F803C00CF00F0591F889
:1004200003C01CF0100F03D091F802C04CEA050580
:1004300091F800C0BCF1000F31D0146800202BE00F
:100440004FF0010C0CFA00F3B1F800C00CEA0306FF
:100450009E4220D183004FF00F0C0CFA03F7BC43EF
:1004600005FA03FC4CEA040491F803C0BCF1280F20
:1004700006D14FF0010C0CFA00FCC2F814C00AE0DF
:1004800091F803C0BCF1480F05D14FF0010C0CFAF4
:1004900000FCC2F810C0401C0828D1D31460B1F889
:1004A00000C0BCF1FF0F34DD546800202EE000F1E5
:1004B000080C4FF0010808FA0CF3B1F800C00CEA80
:1004C00003069E4221D183004FF00F0C0CFA03F774
:1004D000BC4305FA03FC4CEA040491F803C0BCF1E8
:1004E000280F05D100F1080C08FA0CF8C2F81480A6
:1004F00091F803C0BCF1480F07D100F1080C4FF090
:10050000010808FA0CF8C2F81080401C0828CED365
:100510005460BDE8F0814FF6FF71018002218170C7
:100520000421C17070470246002093680B4201D03D
:10053000012000E0002070470146886880B27047C3
:1005400002460020D3680B4201D0012000E00020C9
:1005500070470146C86880B27047016170474161C9
:1005600070470AB1016100E041617047C1607047A6
:100570004FF480320A4382618161826182698269BB
:10058000704702460020424B18684FF680731840AF
:1005900040EA021008433E4B186070473D49C8616D
:1005A0007047F0B50A46002300240021002500F022
:1005B0000046B6F1004F02D1354EF16901E0344EEC
:1005C0007168C0F3034583B200F44016B6F5401FCE
:1005D00008D121F070612E4E766826F070662C4F9F
:1005E0007E6012E000F48016B6F5801F06D1032667
:1005F00006FA05F4A14341F0706106E0460D3601AC
:1006000003FA06F6B14341F0706122B1460D36019E
:1006100003FA06F6314300F00046B6F1004F02D16E
:100620001B4EF16101E01A4E7160F0BD30B5002241
:100630008B071C0F0F2303FA04F2154B08338C10A1
:1006400053F824309343124C08348D1044F825306D
:1006500023468C1053F824308C07240F00FA04F43E
:1006600023430B4C08348D1044F8253030BD0A4923
:100670000860704700080140000C01400010014074
:100680000014014000180140001C014000200140FE
:100690000000014000002042DC002042DD480068EC
:1006A00040F00100DB49086008464068DA4908402C
:1006B000D849486008460068D8490840D5490860CC
:1006C0000846006820F4802008600846406820F44E
:1006D000FE0048604FF41F0088607047CD490968EC
:1006E00021F48031CB4A11601146096821F4802140
:1006F0001160B0F5803F03D0B0F5802F0ED106E039
:10070000C449096841F48031C24A116007E0C14917
:10071000096841F4A021BF4A116000E000BF00BF9A
:10072000704710B501460022002300204A11012A1B
:1007300002D1B84C236806E0022A02D1B54C236AE4
:1007400001E0B44C636A01F01F02012494401C4292
:1007500001D0012000E0002010BD38B5002000903D
:100760000024002500BF3120FFF7DBFF054600987D
:10077000401C00900098B0F5A06F01D0002DF2D081
:100780003120FFF7CEFF08B1012400E0002420460D
:1007900038BD014600209F4A106820F0F80040EA6A
:1007A000C100106070479E490860704702460020F3
:1007B000984B586820F47C1042EA01031843954B8B
:1007C0005860704796490866704701460020914A74
:1007D000506820F003000843506070478D4840681F
:1007E00000F00C007047014600208A4A506820F053
:1007F000F00008435060704701460020854A506869
:1008000020F4E06008435060704701460020814AB0
:10081000506820F4605040EAC1005060704729B130
:100820007C4A527A02437B4B5A7204E0794A527AEC
:100830008243784B5A7270477A4908607047014684
:100840000020744A506820F44040084350607047CC
:100850000021754A11706F4A82F82010012802D0D9
:10086000042808D103E001216F4A117004E005213A
:100870006D4A117000E000BF00BF70476B4908600F
:1008800070476449096A0143624A116270476749C7
:1008900044390860704730B500210022002400234D
:1008A0005C4D6D6805F00C0121B1042905D00829C3
:1008B00023D105E05E4D056022E05D4D05601FE03F
:1008C000544D6D6805F47012524D6D6805F4803416
:1008D000022505EB92421CB9564D554305600BE0CD
:1008E0004C4D6D6815F4003F03D0524D55430560E3
:1008F00002E04F4D5543056002E04D4D056000BFDD
:1009000000BF444D6D6805F0F00109094A4D6B5C6C
:100910000568DD4045603F4D6D6805F4E061090AFA
:10092000454D6B5C4568DD4085603A4D6D6805F46A
:100930006051C90A404D6B5C4568DD40C560354D6E
:100940006D6805F44041890B3C4D6B5CC568B5FB97
:10095000F3F5056130BD29B12E4A526902432D4B92
:100960005A6104E02B4A526982432A4B5A6170470C
:1009700029B1284A92690243264B9A6104E0254A2C
:1009800092698243234B9A61704729B1214AD26907
:100990000243204BDA6104E01E4AD26982431D4BB8
:1009A000DA61704729B11B4AD2680243194BDA60F9
:1009B00004E0184AD2688243164BDA60704729B1C6
:1009C000144A12690243134B1A6104E0114A126976
:1009D0008243104B1A6170471449403908607047D0
:1009E0000F49C86470470B49C87170470948406A8D
:1009F00040F0807007494862704701460020054A70
:100A000092680A4201D0012000E0002070470149AD
:100A100088727047001002400000FFF8FFFFF6FEEA
:100A200000004242D800424220100240800442426C
:100A300000127A0000093D0014000020240000206C
:100A400010B50446BE48844208D101218014FFF746
:100A5000A9FF0021A014FFF7A5FF16E0B9488442C2
:100A600008D101210014FFF7AAFF00212014FFF78D
:100A7000A6FF0AE0B448844207D10121C013FFF762
:100A80009EFF0021E013FFF79AFF10BD10B5002272
:100A9000028802F441520B884C8823438C882343FC
:100AA000CC8823430C8923434C8923438C892343DB
:100AB000CC8923431A430280838B4FF2FF74234077
:100AC00083830B8A038210BD2DE9F04F85B0054664
:100AD0000C464FF0000902274FF000084FF0010BC1
:100AE0000026B246A88B4FF240010840A88302209E
:100AF0002884B5F81C90A068022801D100BF38E016
:100B0000A08810B94FF0010B01E04FF0020B8D48A7
:100B1000854200D100E000BF6846FFF7BCFEDDF86B
:100B200000A0E088B0F5007F0AD14FEA1A2000EB60
:100B300080004000A168B0FBF1F0401D86B20BE0E0
:100B40004FEA4B10BAFBF0F000EB80004000A168C8
:100B5000B0FBF1F0401D86B20A20B6FBF0F606F0BD
:100B60000108A6EB0800C0F34F074FF6FF7000EA3C
:100B70000828022F01DBFF2F02DD02274FF00008BB
:100B8000E08840EA080038432884A088A189084307
:100B9000618808432188084340F4006040EA09095D
:100BA000A5F81C9005B0BDE8F08F002101804180C0
:100BB0008180C180018141818181C18107210182C0
:100BC00070470021018041808180C18002218160C5
:100BD00000218181704721B1028842F040020280E9
:100BE00004E002884FF6BF731A400280704721B1BB
:100BF000828B42F48062828304E0828B4FF6FF3363
:100C00001A408283704730B5002400230C1101255F
:100C1000A540ABB21AB185881D43858002E0858866
:100C20009D43858030BD1AB183880B43838002E0E9
:100C300083888B4383807047818170470146888910
:100C40007047A1F57E42FF3A04D0028842F48072D8
:100C5000028004E002884FF6FF631A40028070476A
:100C600021B1828842F00402828004E082884FF63B
:100C7000FB731A408280704702884FF2FF731A405C
:100C8000028002880A4302807047018841F4805143
:100C90000180704721B1028842F40052028004E0D2
:100CA00002884DF6FF731A4002807047024600200A
:100CB000012901D0108B00E0908A70470146088A14
:100CC0007047B1F5804F04D1028842F4804202801F
:100CD00004E002884BF6FF731A4002807047024618
:100CE000002013890B4201D0012000E00020704752
:100CF000CA4302817047F0B5024600200024002359
:100D0000002501F00F070126BE40B4B20B110126E9
:100D10009E40B3B2968806EA03051689264202D0A1
:100D20000DB1012000E00020F0BD10B5002201F05F
:100D30000F040123A3409AB2D343038110BD0000E6
:100D40000030014000380040003C004000F0E3F873
:100D500000BFFEE7704700BFFEE700BFFEE700BF31
:100D6000FEE700BFFEE7704770477047704700001E
:100D700000B587B001218803FFF707FE0121082095
:100D8000FFF7F6FD01211020FFF7F2FD4FF482700E
:100D9000ADF80A000220ADF80E000120ADF81000F9
:100DA0000020ADF81600ADF80C00ADF81400ADF859
:100DB00008004FF40070ADF8120002A9F848FFF7E0
:100DC00065FE0121F648FFF706FF10208DF80700A9
:100DD00003208DF806004020ADF8040001A9F14879
:100DE000FFF710FB18208DF8070003208DF8060090
:100DF0004FF43040ADF8040001A9EB48FFF702FBC7
:100E000007B000BD10B54FF4004000F0F3F9E7491A
:100E1000086010BD70B505460C461CB94020E1497C
:100E2000486104E0012C02D14020DE4908614FF402
:100E30008050DD49143108602946D948FFF7FCFE8F
:100E400000BFD7480830008810F0020FF9D04FF4E7
:100E50008050D5491031086070BD10B5044601219D
:100E6000C4F30720FFF7D6FFE0B20121FFF7D2FF5E
:100E700010BD2DE9F04104460D4616461F460021DF
:100E80002A20FFF7C7FF01210020FFF7C3FFA11CA5
:100E9000C8B20121FFF7BEFF01210020FFF7BAFF12
:100EA000A91CC8B20121FFF7B5FF00212B20FFF7D5
:100EB000B1FF01210020FFF7ADFFF11CC8B20121F5
:100EC000FFF7A8FF01210020FFF7A4FFF91CC8B21B
:100ED0000121FFF79FFF00212C20FFF79BFFBDE8BA
:100EE000F08170B50646002400257F2300221946B4
:100EF0001046FFF7BEFF00BF0AE0002404E03046C2
:100F0000FFF7ABFF601CC4B2802CF8DB681CC5B2D5
:100F1000802DF2DB70BD10B5FFF72AFF00212820DD
:100F2000FFF778FF00211120FFF774FF0021B120A7
:100F3000FFF770FF01210846FFF76CFF01212C200D
:100F4000FFF768FF01212D20FFF764FF0021B22089
:100F5000FFF760FF01210846FFF75CFF01212C200D
:100F6000FFF758FF01212D20FFF754FF0021B32088
:100F7000FFF750FF01210846FFF74CFF01212C200D
:100F8000FFF748FF01212D20FFF744FF012108460C
:100F9000FFF740FF01212C20FFF73CFF01212D200E
:100FA000FFF738FF0021B420FFF734FF01210720AD
:100FB000FFF730FF0021C020FFF72CFF0121A22006
:100FC000FFF728FF01210220FFF724FF01218420E1
:100FD000FFF720FF0021C120FFF71CFF0121C520E2
:100FE000FFF718FF0021C220FFF714FF01210A209C
:100FF000FFF710FF01210020FFF70CFF0021C320A5
:10100000FFF708FF01218A20FFF704FF01212A20B2
:10101000FFF700FF0021C420FFF7FCFE01218A201A
:10102000FFF7F8FE0121EE20FFF7F4FE0021C520B6
:10103000FFF7F0FE01210E20FFF7ECFE0021362025
:10104000FFF7E8FE0121C820FFF7E4FE0021E020C1
:10105000FFF7E0FE01210F20FFF7DCFE01211A203F
:10106000FFF7D8FE01210F20FFF7D4FE0121182041
:10107000FFF7D0FE01212F20FFF7CCFE0121282011
:10108000FFF7C8FE01212020FFF7C4FE0121222026
:10109000FFF7C0FE01211F20FFF7BCFE01211B202E
:1010A000FFF7B8FE01212320FFF7B4FE012137200E
:1010B000FFF7B0FE01210020FFF7ACFE0121072061
:1010C000FFF7A8FE01210220FFF7A4FE0121102056
:1010D000FFF7A0FE0021E120FFF79CFE01210F2079
:1010E000FFF798FE01211B20FFF794FE01210F203E
:1010F000FFF790FE01211720FFF78CFE012133201E
:10110000FFF788FE01212C20FFF784FE0121292012
:10111000FFF780FE01212E20FFF77CFE0121302009
:10112000FFF778FE01213020FFF774FE01213920FE
:10113000FFF770FE01213F20FFF76CFE0121002028
:10114000FFF768FE01210720FFF764FE012103205D
:10115000FFF760FE01211020FFF75CFE0021F02068
:10116000FFF758FE01210846FFF754FE0021F62044
:10117000FFF750FE01210020FFF74CFE00213A202E
:10118000FFF748FE01210520FFF744FE002129203A
:10119000FFF740FE4FF6E070FFF7A3FE10BD000022
:1011A0000038004000100140000C014028000020E1
:1011B000064C074D06E0E06840F0010394E80700A4
:1011C00098471034AC42F6D3FEF7B6FF6012000821
:1011D0008012000802E008C8121F08C1002AFAD1D4
:1011E00070477047002001E001C1121F002AFBD1A7
:1011F00070470000F0B50B30154D20F007010024BA
:10120000144A0FE003688B420BD38B4205D95E1A58
:1012100043184768C3E9006700E04368136002C0F1
:1012200004E0021D10680028ECD12046002802D1FD
:10123000286808B10020F0BD064A07481060074A38
:10124000121A22F00702C0E9002401202860D7E723
:10125000300000202C0000203C000020380200203C
:10126000801200080000002034000000D4110008A3
:10127000B41200083400002004060000E411000845
:1012800000A24A0400000000000000000102030464
:10129000060708090000000001020304010203041C
:1012A000060708090204060800000000000000000C
:0412B000000000003A
:0400000508000131BD
:00000001FF
